{
  "_format": "hh-sol-artifact-1",
  "contractName": "DexalotToken",
  "sourceName": "contracts/DexalotToken.sol",
  "abi": [
    {
      "inputs": [],
      "stateMutability": "nonpayable",
      "type": "constructor"
    },
    {
      "anonymous": false,
      "inputs": [
        {
          "indexed": true,
          "internalType": "address",
          "name": "owner",
          "type": "address"
        },
        {
          "indexed": true,
          "internalType": "address",
          "name": "spender",
          "type": "address"
        },
        {
          "indexed": false,
          "internalType": "uint256",
          "name": "value",
          "type": "uint256"
        }
      ],
      "name": "Approval",
      "type": "event"
    },
    {
      "anonymous": false,
      "inputs": [
        {
          "indexed": true,
          "internalType": "address",
          "name": "delegator",
          "type": "address"
        },
        {
          "indexed": true,
          "internalType": "address",
          "name": "fromDelegate",
          "type": "address"
        },
        {
          "indexed": true,
          "internalType": "address",
          "name": "toDelegate",
          "type": "address"
        }
      ],
      "name": "DelegateChanged",
      "type": "event"
    },
    {
      "anonymous": false,
      "inputs": [
        {
          "indexed": true,
          "internalType": "address",
          "name": "delegate",
          "type": "address"
        },
        {
          "indexed": false,
          "internalType": "uint256",
          "name": "previousBalance",
          "type": "uint256"
        },
        {
          "indexed": false,
          "internalType": "uint256",
          "name": "newBalance",
          "type": "uint256"
        }
      ],
      "name": "DelegateVotesChanged",
      "type": "event"
    },
    {
      "anonymous": false,
      "inputs": [
        {
          "indexed": true,
          "internalType": "address",
          "name": "previousOwner",
          "type": "address"
        },
        {
          "indexed": true,
          "internalType": "address",
          "name": "newOwner",
          "type": "address"
        }
      ],
      "name": "OwnershipTransferred",
      "type": "event"
    },
    {
      "anonymous": false,
      "inputs": [
        {
          "indexed": false,
          "internalType": "address",
          "name": "account",
          "type": "address"
        }
      ],
      "name": "Paused",
      "type": "event"
    },
    {
      "anonymous": false,
      "inputs": [
        {
          "indexed": true,
          "internalType": "address",
          "name": "from",
          "type": "address"
        },
        {
          "indexed": true,
          "internalType": "address",
          "name": "to",
          "type": "address"
        },
        {
          "indexed": false,
          "internalType": "uint256",
          "name": "value",
          "type": "uint256"
        }
      ],
      "name": "Transfer",
      "type": "event"
    },
    {
      "anonymous": false,
      "inputs": [
        {
          "indexed": false,
          "internalType": "address",
          "name": "account",
          "type": "address"
        }
      ],
      "name": "Unpaused",
      "type": "event"
    },
    {
      "inputs": [],
      "name": "DOMAIN_SEPARATOR",
      "outputs": [
        {
          "internalType": "bytes32",
          "name": "",
          "type": "bytes32"
        }
      ],
      "stateMutability": "view",
      "type": "function"
    },
    {
      "inputs": [
        {
          "internalType": "address",
          "name": "owner",
          "type": "address"
        },
        {
          "internalType": "address",
          "name": "spender",
          "type": "address"
        }
      ],
      "name": "allowance",
      "outputs": [
        {
          "internalType": "uint256",
          "name": "",
          "type": "uint256"
        }
      ],
      "stateMutability": "view",
      "type": "function"
    },
    {
      "inputs": [
        {
          "internalType": "address",
          "name": "spender",
          "type": "address"
        },
        {
          "internalType": "uint256",
          "name": "amount",
          "type": "uint256"
        }
      ],
      "name": "approve",
      "outputs": [
        {
          "internalType": "bool",
          "name": "",
          "type": "bool"
        }
      ],
      "stateMutability": "nonpayable",
      "type": "function"
    },
    {
      "inputs": [
        {
          "internalType": "address",
          "name": "account",
          "type": "address"
        }
      ],
      "name": "balanceOf",
      "outputs": [
        {
          "internalType": "uint256",
          "name": "",
          "type": "uint256"
        }
      ],
      "stateMutability": "view",
      "type": "function"
    },
    {
      "inputs": [
        {
          "internalType": "uint256",
          "name": "amount",
          "type": "uint256"
        }
      ],
      "name": "burn",
      "outputs": [],
      "stateMutability": "nonpayable",
      "type": "function"
    },
    {
      "inputs": [
        {
          "internalType": "address",
          "name": "account",
          "type": "address"
        },
        {
          "internalType": "uint256",
          "name": "amount",
          "type": "uint256"
        }
      ],
      "name": "burnFrom",
      "outputs": [],
      "stateMutability": "nonpayable",
      "type": "function"
    },
    {
      "inputs": [
        {
          "internalType": "address",
          "name": "account",
          "type": "address"
        },
        {
          "internalType": "uint32",
          "name": "pos",
          "type": "uint32"
        }
      ],
      "name": "checkpoints",
      "outputs": [
        {
          "components": [
            {
              "internalType": "uint32",
              "name": "fromBlock",
              "type": "uint32"
            },
            {
              "internalType": "uint224",
              "name": "votes",
              "type": "uint224"
            }
          ],
          "internalType": "struct ERC20Votes.Checkpoint",
          "name": "",
          "type": "tuple"
        }
      ],
      "stateMutability": "view",
      "type": "function"
    },
    {
      "inputs": [],
      "name": "decimals",
      "outputs": [
        {
          "internalType": "uint8",
          "name": "",
          "type": "uint8"
        }
      ],
      "stateMutability": "view",
      "type": "function"
    },
    {
      "inputs": [
        {
          "internalType": "address",
          "name": "spender",
          "type": "address"
        },
        {
          "internalType": "uint256",
          "name": "subtractedValue",
          "type": "uint256"
        }
      ],
      "name": "decreaseAllowance",
      "outputs": [
        {
          "internalType": "bool",
          "name": "",
          "type": "bool"
        }
      ],
      "stateMutability": "nonpayable",
      "type": "function"
    },
    {
      "inputs": [
        {
          "internalType": "address",
          "name": "delegatee",
          "type": "address"
        }
      ],
      "name": "delegate",
      "outputs": [],
      "stateMutability": "nonpayable",
      "type": "function"
    },
    {
      "inputs": [
        {
          "internalType": "address",
          "name": "delegatee",
          "type": "address"
        },
        {
          "internalType": "uint256",
          "name": "nonce",
          "type": "uint256"
        },
        {
          "internalType": "uint256",
          "name": "expiry",
          "type": "uint256"
        },
        {
          "internalType": "uint8",
          "name": "v",
          "type": "uint8"
        },
        {
          "internalType": "bytes32",
          "name": "r",
          "type": "bytes32"
        },
        {
          "internalType": "bytes32",
          "name": "s",
          "type": "bytes32"
        }
      ],
      "name": "delegateBySig",
      "outputs": [],
      "stateMutability": "nonpayable",
      "type": "function"
    },
    {
      "inputs": [
        {
          "internalType": "address",
          "name": "account",
          "type": "address"
        }
      ],
      "name": "delegates",
      "outputs": [
        {
          "internalType": "address",
          "name": "",
          "type": "address"
        }
      ],
      "stateMutability": "view",
      "type": "function"
    },
    {
      "inputs": [
        {
          "internalType": "uint256",
          "name": "blockNumber",
          "type": "uint256"
        }
      ],
      "name": "getPastTotalSupply",
      "outputs": [
        {
          "internalType": "uint256",
          "name": "",
          "type": "uint256"
        }
      ],
      "stateMutability": "view",
      "type": "function"
    },
    {
      "inputs": [
        {
          "internalType": "address",
          "name": "account",
          "type": "address"
        },
        {
          "internalType": "uint256",
          "name": "blockNumber",
          "type": "uint256"
        }
      ],
      "name": "getPastVotes",
      "outputs": [
        {
          "internalType": "uint256",
          "name": "",
          "type": "uint256"
        }
      ],
      "stateMutability": "view",
      "type": "function"
    },
    {
      "inputs": [
        {
          "internalType": "address",
          "name": "account",
          "type": "address"
        }
      ],
      "name": "getVotes",
      "outputs": [
        {
          "internalType": "uint256",
          "name": "",
          "type": "uint256"
        }
      ],
      "stateMutability": "view",
      "type": "function"
    },
    {
      "inputs": [
        {
          "internalType": "address",
          "name": "spender",
          "type": "address"
        },
        {
          "internalType": "uint256",
          "name": "addedValue",
          "type": "uint256"
        }
      ],
      "name": "increaseAllowance",
      "outputs": [
        {
          "internalType": "bool",
          "name": "",
          "type": "bool"
        }
      ],
      "stateMutability": "nonpayable",
      "type": "function"
    },
    {
      "inputs": [],
      "name": "name",
      "outputs": [
        {
          "internalType": "string",
          "name": "",
          "type": "string"
        }
      ],
      "stateMutability": "view",
      "type": "function"
    },
    {
      "inputs": [
        {
          "internalType": "address",
          "name": "owner",
          "type": "address"
        }
      ],
      "name": "nonces",
      "outputs": [
        {
          "internalType": "uint256",
          "name": "",
          "type": "uint256"
        }
      ],
      "stateMutability": "view",
      "type": "function"
    },
    {
      "inputs": [
        {
          "internalType": "address",
          "name": "account",
          "type": "address"
        }
      ],
      "name": "numCheckpoints",
      "outputs": [
        {
          "internalType": "uint32",
          "name": "",
          "type": "uint32"
        }
      ],
      "stateMutability": "view",
      "type": "function"
    },
    {
      "inputs": [],
      "name": "owner",
      "outputs": [
        {
          "internalType": "address",
          "name": "",
          "type": "address"
        }
      ],
      "stateMutability": "view",
      "type": "function"
    },
    {
      "inputs": [],
      "name": "pause",
      "outputs": [],
      "stateMutability": "nonpayable",
      "type": "function"
    },
    {
      "inputs": [],
      "name": "paused",
      "outputs": [
        {
          "internalType": "bool",
          "name": "",
          "type": "bool"
        }
      ],
      "stateMutability": "view",
      "type": "function"
    },
    {
      "inputs": [
        {
          "internalType": "address",
          "name": "owner",
          "type": "address"
        },
        {
          "internalType": "address",
          "name": "spender",
          "type": "address"
        },
        {
          "internalType": "uint256",
          "name": "value",
          "type": "uint256"
        },
        {
          "internalType": "uint256",
          "name": "deadline",
          "type": "uint256"
        },
        {
          "internalType": "uint8",
          "name": "v",
          "type": "uint8"
        },
        {
          "internalType": "bytes32",
          "name": "r",
          "type": "bytes32"
        },
        {
          "internalType": "bytes32",
          "name": "s",
          "type": "bytes32"
        }
      ],
      "name": "permit",
      "outputs": [],
      "stateMutability": "nonpayable",
      "type": "function"
    },
    {
      "inputs": [],
      "name": "renounceOwnership",
      "outputs": [],
      "stateMutability": "nonpayable",
      "type": "function"
    },
    {
      "inputs": [],
      "name": "symbol",
      "outputs": [
        {
          "internalType": "string",
          "name": "",
          "type": "string"
        }
      ],
      "stateMutability": "view",
      "type": "function"
    },
    {
      "inputs": [],
      "name": "totalSupply",
      "outputs": [
        {
          "internalType": "uint256",
          "name": "",
          "type": "uint256"
        }
      ],
      "stateMutability": "view",
      "type": "function"
    },
    {
      "inputs": [
        {
          "internalType": "address",
          "name": "recipient",
          "type": "address"
        },
        {
          "internalType": "uint256",
          "name": "amount",
          "type": "uint256"
        }
      ],
      "name": "transfer",
      "outputs": [
        {
          "internalType": "bool",
          "name": "",
          "type": "bool"
        }
      ],
      "stateMutability": "nonpayable",
      "type": "function"
    },
    {
      "inputs": [
        {
          "internalType": "address",
          "name": "sender",
          "type": "address"
        },
        {
          "internalType": "address",
          "name": "recipient",
          "type": "address"
        },
        {
          "internalType": "uint256",
          "name": "amount",
          "type": "uint256"
        }
      ],
      "name": "transferFrom",
      "outputs": [
        {
          "internalType": "bool",
          "name": "",
          "type": "bool"
        }
      ],
      "stateMutability": "nonpayable",
      "type": "function"
    },
    {
      "inputs": [
        {
          "internalType": "address",
          "name": "newOwner",
          "type": "address"
        }
      ],
      "name": "transferOwnership",
      "outputs": [],
      "stateMutability": "nonpayable",
      "type": "function"
    },
    {
      "inputs": [],
      "name": "unpause",
      "outputs": [],
      "stateMutability": "nonpayable",
      "type": "function"
    }
  ],
  "bytecode": "0x6101406040527f6e71edae12b1b97f4d1f60370fef10105fa2faae0126114a169c64845d6126c9610120523480156200003757600080fd5b506040518060400160405280600d81526020016c2232bc30b637ba102a37b5b2b760991b81525080604051806040016040528060018152602001603160f81b8152506040518060400160405280600d81526020016c2232bc30b637ba102a37b5b2b760991b81525060405180604001604052806004815260200163105313d560e21b8152508160039080519060200190620000d492919062000883565b508051620000ea90600490602084019062000883565b50506005805460ff19169055506200010233620001bb565b815160209283012081519183019190912060c082815260e08290524660a0818152604080517f8b73c3c69bb8fe3d512ecc4cf759cc79239f7b179b0ffacaa9a75d522b39400f8189018190528183019790975260608101959095526080808601939093523085830152805180860390920182529390920190925280519301929092209091526101005250620001b5336200019f6012600a62000a32565b620001af906305f5e10062000a43565b62000215565b62000aed565b600580546001600160a01b03838116610100818102610100600160a81b031985161790945560405193909204169182907f8be0079c531659141344cd1fd0a4f28419497f9722a3daafe3b4186f6b6457e090600090a35050565b6200022c82826200023060201b62000da01760201c565b5050565b620002478282620002e760201b62000e301760201c565b6001600160e01b036200025b620003e48216565b1115620002c85760405162461bcd60e51b815260206004820152603060248201527f4552433230566f7465733a20746f74616c20737570706c79207269736b73206f60448201526f766572666c6f77696e6720766f74657360801b60648201526084015b60405180910390fd5b620002e1600962000f27620003ea60201b178362000401565b50505050565b6001600160a01b0382166200033f5760405162461bcd60e51b815260206004820152601f60248201527f45524332303a206d696e7420746f20746865207a65726f2061646472657373006044820152606401620002bf565b6200034d60008383620005b3565b806002600082825462000361919062000a65565b90915550506001600160a01b038216600090815260208190526040812080548392906200039090849062000a65565b90915550506040518181526001600160a01b038316906000907fddf252ad1be2c89b69c2b068fc378daa952ba7f163c4a11628f55a4df523b3ef9060200160405180910390a36200022c6000838362000618565b60025490565b6000620003f8828462000a65565b90505b92915050565b8254600090819080156200045357856200041d60018362000a80565b8154811062000430576200043062000a9a565b60009182526020909120015464010000000090046001600160e01b031662000456565b60005b6001600160e01b031692506200046d83858760201c565b9150600081118015620004b1575043866200048a60018462000a80565b815481106200049d576200049d62000a9a565b60009182526020909120015463ffffffff16145b156200052557620004cd826200063060201b62000f331760201c565b86620004db60018462000a80565b81548110620004ee57620004ee62000a9a565b9060005260206000200160000160046101000a8154816001600160e01b0302191690836001600160e01b03160217905550620005aa565b85604051806040016040528062000547436200069f60201b62000fa01760201c565b63ffffffff16815260200162000568856200063060201b62000f331760201c565b6001600160e01b0390811690915282546001810184556000938452602093849020835194909301519091166401000000000263ffffffff909316929092179101555b50935093915050565b60055460ff1615620005fb5760405162461bcd60e51b815260206004820152601060248201526f14185d5cd8589b194e881c185d5cd95960821b6044820152606401620002bf565b620006138383836200061360201b620007f11760201c565b505050565b620006138383836200070660201b620010051760201c565b60006001600160e01b038211156200069b5760405162461bcd60e51b815260206004820152602760248201527f53616665436173743a2076616c756520646f65736e27742066697420696e20326044820152663234206269747360c81b6064820152608401620002bf565b5090565b600063ffffffff8211156200069b5760405162461bcd60e51b815260206004820152602660248201527f53616665436173743a2076616c756520646f65736e27742066697420696e203360448201526532206269747360d01b6064820152608401620002bf565b6200071e8383836200061360201b620007f11760201c565b6001600160a01b0383811660009081526007602052604080822054858416835291205462000613929182169116838183148015906200075d5750600081115b1562000613576001600160a01b03831615620007ea576001600160a01b038316600090815260086020908152604082208291620007a7919062000875901b62001037178562000401565b91509150846001600160a01b031660008051602062002d838339815191528383604051620007df929190918252602082015260400190565b60405180910390a250505b6001600160a01b0382161562000613576001600160a01b0382166000908152600860209081526040822082916200082e9190620003ea901b62000f27178562000401565b91509150836001600160a01b031660008051602062002d83833981519152838360405162000866929190918252602082015260400190565b60405180910390a25050505050565b6000620003f8828462000a80565b828054620008919062000ab0565b90600052602060002090601f016020900481019282620008b5576000855562000900565b82601f10620008d057805160ff191683800117855562000900565b8280016001018555821562000900579182015b8281111562000900578251825591602001919060010190620008e3565b506200069b9291505b808211156200069b576000815560010162000909565b634e487b7160e01b600052601160045260246000fd5b600181815b80851115620009765781600019048211156200095a576200095a6200091f565b808516156200096857918102915b93841c93908002906200093a565b509250929050565b6000826200098f57506001620003fb565b816200099e57506000620003fb565b8160018114620009b75760028114620009c257620009e2565b6001915050620003fb565b60ff841115620009d657620009d66200091f565b50506001821b620003fb565b5060208310610133831016604e8410600b841016171562000a07575081810a620003fb565b62000a13838362000935565b806000190482111562000a2a5762000a2a6200091f565b029392505050565b6000620003f860ff8416836200097e565b600081600019048311821515161562000a605762000a606200091f565b500290565b6000821982111562000a7b5762000a7b6200091f565b500190565b60008282101562000a955762000a956200091f565b500390565b634e487b7160e01b600052603260045260246000fd5b600181811c9082168062000ac557607f821691505b6020821081141562000ae757634e487b7160e01b600052602260045260246000fd5b50919050565b60805160a05160c05160e051610100516101205161224662000b3d6000396000610b6e0152600061139c015260006113eb015260006113c60152600061134a0152600061137301526122466000f3fe608060405234801561001057600080fd5b50600436106101da5760003560e01c8063715018a6116101045780639ab24eb0116100a2578063d505accf11610071578063d505accf14610405578063dd62ed3e14610418578063f1127ed814610451578063f2fde38b1461048e57600080fd5b80639ab24eb0146103b9578063a457c2d7146103cc578063a9059cbb146103df578063c3cda520146103f257600080fd5b80638456cb59116100de5780638456cb59146103805780638da5cb5b146103885780638e539e8c1461039e57806395d89b41146103b157600080fd5b8063715018a61461035257806379cc67901461035a5780637ecebe001461036d57600080fd5b80633a46b1a81161017c5780635c19a95c1161014b5780635c19a95c146102e35780635c975abb146102f65780636fcfff451461030157806370a082311461032957600080fd5b80633a46b1a81461026f5780633f4ba83a1461028257806342966c681461028c578063587cde1e1461029f57600080fd5b806323b872dd116101b857806323b872dd14610232578063313ce567146102455780633644e51514610254578063395093511461025c57600080fd5b806306fdde03146101df578063095ea7b3146101fd57806318160ddd14610220575b600080fd5b6101e76104a1565b6040516101f49190611ec2565b60405180910390f35b61021061020b366004611f33565b610533565b60405190151581526020016101f4565b6002545b6040519081526020016101f4565b610210610240366004611f5d565b610549565b604051601281526020016101f4565b6102246105f8565b61021061026a366004611f33565b610607565b61022461027d366004611f33565b610643565b61028a6106bd565b005b61028a61029a366004611f99565b6106f7565b6102cb6102ad366004611fb2565b6001600160a01b039081166000908152600760205260409020541690565b6040516001600160a01b0390911681526020016101f4565b61028a6102f1366004611fb2565b610704565b60055460ff16610210565b61031461030f366004611fb2565b61070e565b60405163ffffffff90911681526020016101f4565b610224610337366004611fb2565b6001600160a01b031660009081526020819052604090205490565b61028a610736565b61028a610368366004611f33565b610770565b61022461037b366004611fb2565b6107f6565b61028a610814565b60055461010090046001600160a01b03166102cb565b6102246103ac366004611f99565b61084c565b6101e76108a8565b6102246103c7366004611fb2565b6108b7565b6102106103da366004611f33565b61093e565b6102106103ed366004611f33565b6109d7565b61028a610400366004611fde565b6109e4565b61028a610413366004612036565b610b1a565b6102246104263660046120a0565b6001600160a01b03918216600090815260016020908152604080832093909416825291909152205490565b61046461045f3660046120d3565b610c7e565b60408051825163ffffffff1681526020928301516001600160e01b031692810192909252016101f4565b61028a61049c366004611fb2565b610d02565b6060600380546104b090612113565b80601f01602080910402602001604051908101604052809291908181526020018280546104dc90612113565b80156105295780601f106104fe57610100808354040283529160200191610529565b820191906000526020600020905b81548152906001019060200180831161050c57829003601f168201915b5050505050905090565b6000610540338484611043565b50600192915050565b6000610556848484611167565b6001600160a01b0384166000908152600160209081526040808320338452909152902054828110156105e05760405162461bcd60e51b815260206004820152602860248201527f45524332303a207472616e7366657220616d6f756e74206578636565647320616044820152676c6c6f77616e636560c01b60648201526084015b60405180910390fd5b6105ed8533858403611043565b506001949350505050565b6000610602611346565b905090565b3360008181526001602090815260408083206001600160a01b0387168452909152812054909161054091859061063e90869061215e565b611043565b60004382106106945760405162461bcd60e51b815260206004820152601f60248201527f4552433230566f7465733a20626c6f636b206e6f7420796574206d696e65640060448201526064016105d7565b6001600160a01b03831660009081526008602052604090206106b69083611439565b9392505050565b6005546001600160a01b036101009091041633146106ed5760405162461bcd60e51b81526004016105d790612176565b6106f56114f6565b565b6107013382611589565b50565b6107013382611593565b6001600160a01b03811660009081526008602052604081205461073090610fa0565b92915050565b6005546001600160a01b036101009091041633146107665760405162461bcd60e51b81526004016105d790612176565b6106f5600061160c565b600061077c8333610426565b9050818110156107da5760405162461bcd60e51b8152602060048201526024808201527f45524332303a206275726e20616d6f756e74206578636565647320616c6c6f77604482015263616e636560e01b60648201526084016105d7565b6107e78333848403611043565b6107f18383611589565b505050565b6001600160a01b038116600090815260066020526040812054610730565b6005546001600160a01b036101009091041633146108445760405162461bcd60e51b81526004016105d790612176565b6106f5611666565b600043821061089d5760405162461bcd60e51b815260206004820152601f60248201527f4552433230566f7465733a20626c6f636b206e6f7420796574206d696e65640060448201526064016105d7565b610730600983611439565b6060600480546104b090612113565b6001600160a01b038116600090815260086020526040812054801561092b576001600160a01b03831660009081526008602052604090206108f96001836121ab565b81548110610909576109096121c2565b60009182526020909120015464010000000090046001600160e01b031661092e565b60005b6001600160e01b03169392505050565b3360009081526001602090815260408083206001600160a01b0386168452909152812054828110156109c05760405162461bcd60e51b815260206004820152602560248201527f45524332303a2064656372656173656420616c6c6f77616e63652062656c6f77604482015264207a65726f60d81b60648201526084016105d7565b6109cd3385858403611043565b5060019392505050565b6000610540338484611167565b83421115610a345760405162461bcd60e51b815260206004820152601d60248201527f4552433230566f7465733a207369676e6174757265206578706972656400000060448201526064016105d7565b604080517fe48329057bfd03d55e49b547132e39cffd9c1820ad7b9d4c5307691425d15adf60208201526001600160a01b038816918101919091526060810186905260808101859052600090610aae90610aa69060a001604051602081830303815290604052805190602001206116e1565b85858561172f565b9050610ab981611757565b8614610b075760405162461bcd60e51b815260206004820152601960248201527f4552433230566f7465733a20696e76616c6964206e6f6e63650000000000000060448201526064016105d7565b610b118188611593565b50505050505050565b83421115610b6a5760405162461bcd60e51b815260206004820152601d60248201527f45524332305065726d69743a206578706972656420646561646c696e6500000060448201526064016105d7565b60007f0000000000000000000000000000000000000000000000000000000000000000888888610b998c611757565b6040805160208101969096526001600160a01b0394851690860152929091166060840152608083015260a082015260c0810186905260e0016040516020818303038152906040528051906020012090506000610bf4826116e1565b90506000610c048287878761172f565b9050896001600160a01b0316816001600160a01b031614610c675760405162461bcd60e51b815260206004820152601e60248201527f45524332305065726d69743a20696e76616c6964207369676e6174757265000060448201526064016105d7565b610c728a8a8a611043565b50505050505050505050565b60408051808201909152600080825260208201526001600160a01b0383166000908152600860205260409020805463ffffffff8416908110610cc257610cc26121c2565b60009182526020918290206040805180820190915291015463ffffffff8116825264010000000090046001600160e01b0316918101919091529392505050565b6005546001600160a01b03610100909104163314610d325760405162461bcd60e51b81526004016105d790612176565b6001600160a01b038116610d975760405162461bcd60e51b815260206004820152602660248201527f4f776e61626c653a206e6577206f776e657220697320746865207a65726f206160448201526564647265737360d01b60648201526084016105d7565b6107018161160c565b610daa8282610e30565b6002546001600160e01b031015610e1c5760405162461bcd60e51b815260206004820152603060248201527f4552433230566f7465733a20746f74616c20737570706c79207269736b73206f60448201526f766572666c6f77696e6720766f74657360801b60648201526084016105d7565b610e2a6009610f278361177f565b50505050565b6001600160a01b038216610e865760405162461bcd60e51b815260206004820152601f60248201527f45524332303a206d696e7420746f20746865207a65726f20616464726573730060448201526064016105d7565b610e92600083836118f8565b8060026000828254610ea4919061215e565b90915550506001600160a01b03821660009081526020819052604081208054839290610ed190849061215e565b90915550506040518181526001600160a01b038316906000907fddf252ad1be2c89b69c2b068fc378daa952ba7f163c4a11628f55a4df523b3ef9060200160405180910390a3610f236000838361193e565b5050565b60006106b6828461215e565b60006001600160e01b03821115610f9c5760405162461bcd60e51b815260206004820152602760248201527f53616665436173743a2076616c756520646f65736e27742066697420696e20326044820152663234206269747360c81b60648201526084016105d7565b5090565b600063ffffffff821115610f9c5760405162461bcd60e51b815260206004820152602660248201527f53616665436173743a2076616c756520646f65736e27742066697420696e203360448201526532206269747360d01b60648201526084016105d7565b6001600160a01b038381166000908152600760205260408082205485841683529120546107f192918216911683611949565b60006106b682846121ab565b6001600160a01b0383166110a55760405162461bcd60e51b8152602060048201526024808201527f45524332303a20617070726f76652066726f6d20746865207a65726f206164646044820152637265737360e01b60648201526084016105d7565b6001600160a01b0382166111065760405162461bcd60e51b815260206004820152602260248201527f45524332303a20617070726f766520746f20746865207a65726f206164647265604482015261737360f01b60648201526084016105d7565b6001600160a01b0383811660008181526001602090815260408083209487168084529482529182902085905590518481527f8c5be1e5ebec7d5bd14f71427d1e84f3dd0314c0f7b2291e5b200ac8c7c3b925910160405180910390a3505050565b6001600160a01b0383166111cb5760405162461bcd60e51b815260206004820152602560248201527f45524332303a207472616e736665722066726f6d20746865207a65726f206164604482015264647265737360d81b60648201526084016105d7565b6001600160a01b03821661122d5760405162461bcd60e51b815260206004820152602360248201527f45524332303a207472616e7366657220746f20746865207a65726f206164647260448201526265737360e81b60648201526084016105d7565b6112388383836118f8565b6001600160a01b038316600090815260208190526040902054818110156112b05760405162461bcd60e51b815260206004820152602660248201527f45524332303a207472616e7366657220616d6f756e7420657863656564732062604482015265616c616e636560d01b60648201526084016105d7565b6001600160a01b038085166000908152602081905260408082208585039055918516815290812080548492906112e790849061215e565b92505081905550826001600160a01b0316846001600160a01b03167fddf252ad1be2c89b69c2b068fc378daa952ba7f163c4a11628f55a4df523b3ef8460405161133391815260200190565b60405180910390a3610e2a84848461193e565b60007f000000000000000000000000000000000000000000000000000000000000000046141561139557507f000000000000000000000000000000000000000000000000000000000000000090565b50604080517f00000000000000000000000000000000000000000000000000000000000000006020808301919091527f0000000000000000000000000000000000000000000000000000000000000000828401527f000000000000000000000000000000000000000000000000000000000000000060608301524660808301523060a0808401919091528351808403909101815260c0909201909252805191012090565b8154600090815b8181101561149d5760006114548284611a86565b905084868281548110611469576114696121c2565b60009182526020909120015463ffffffff16111561148957809250611497565b61149481600161215e565b91505b50611440565b81156114e157846114af6001846121ab565b815481106114bf576114bf6121c2565b60009182526020909120015464010000000090046001600160e01b03166114e4565b60005b6001600160e01b031695945050505050565b60055460ff1661153f5760405162461bcd60e51b815260206004820152601460248201527314185d5cd8589b194e881b9bdd081c185d5cd95960621b60448201526064016105d7565b6005805460ff191690557f5db9ee0a495bf2e6ff9c91a7834c1ba4fdd244a5e8aa4e537bd38aeae4b073aa335b6040516001600160a01b03909116815260200160405180910390a1565b610f238282611aa1565b6001600160a01b038281166000818152600760208181526040808420805485845282862054949093528787166001600160a01b03198416811790915590519190951694919391928592917f3134e8a2e6d97e929a7e54011ea5485d7d196dd5f0ba4d4ef95803e8e3fc257f9190a4610e2a828483611949565b600580546001600160a01b03838116610100818102610100600160a81b031985161790945560405193909204169182907f8be0079c531659141344cd1fd0a4f28419497f9722a3daafe3b4186f6b6457e090600090a35050565b60055460ff16156116ac5760405162461bcd60e51b815260206004820152601060248201526f14185d5cd8589b194e881c185d5cd95960821b60448201526064016105d7565b6005805460ff191660011790557f62e78cea01bee320cd4e420270b5ea74000d11b0c9f74754ebdbfc544b05a25861156c3390565b60006107306116ee611346565b8360405161190160f01b6020820152602281018390526042810182905260009060620160405160208183030381529060405280519060200120905092915050565b600080600061174087878787611ab9565b9150915061174d81611ba6565b5095945050505050565b6001600160a01b03811660009081526006602052604090208054600181018255905b50919050565b8254600090819080156117ca57856117986001836121ab565b815481106117a8576117a86121c2565b60009182526020909120015464010000000090046001600160e01b03166117cd565b60005b6001600160e01b031692506117e683858763ffffffff16565b9150600081118015611824575043866118006001846121ab565b81548110611810576118106121c2565b60009182526020909120015463ffffffff16145b156118845761183282610f33565b8661183e6001846121ab565b8154811061184e5761184e6121c2565b9060005260206000200160000160046101000a8154816001600160e01b0302191690836001600160e01b031602179055506118ef565b85604051806040016040528061189943610fa0565b63ffffffff1681526020016118ad85610f33565b6001600160e01b0390811690915282546001810184556000938452602093849020835194909301519091166401000000000263ffffffff909316929092179101555b50935093915050565b60055460ff16156107f15760405162461bcd60e51b815260206004820152601060248201526f14185d5cd8589b194e881c185d5cd95960821b60448201526064016105d7565b6107f1838383611005565b816001600160a01b0316836001600160a01b03161415801561196b5750600081115b156107f1576001600160a01b038316156119f9576001600160a01b038316600090815260086020526040812081906119a6906110378561177f565b91509150846001600160a01b03167fdec2bacdd2f05b59de34da9b523dff8be42e5e38e818c82fdb0bae774387a72483836040516119ee929190918252602082015260400190565b60405180910390a250505b6001600160a01b038216156107f1576001600160a01b03821660009081526008602052604081208190611a2f90610f278561177f565b91509150836001600160a01b03167fdec2bacdd2f05b59de34da9b523dff8be42e5e38e818c82fdb0bae774387a7248383604051611a77929190918252602082015260400190565b60405180910390a25050505050565b6000611a9560028484186121d8565b6106b69084841661215e565b611aab8282611d61565b610e2a60096110378361177f565b6000807f7fffffffffffffffffffffffffffffff5d576e7357a4501ddfe92f46681b20a0831115611af05750600090506003611b9d565b8460ff16601b14158015611b0857508460ff16601c14155b15611b195750600090506004611b9d565b6040805160008082526020820180845289905260ff881692820192909252606081018690526080810185905260019060a0016020604051602081039080840390855afa158015611b6d573d6000803e3d6000fd5b5050604051601f1901519150506001600160a01b038116611b9657600060019250925050611b9d565b9150600090505b94509492505050565b6000816004811115611bba57611bba6121fa565b1415611bc35750565b6001816004811115611bd757611bd76121fa565b1415611c255760405162461bcd60e51b815260206004820152601860248201527f45434453413a20696e76616c6964207369676e6174757265000000000000000060448201526064016105d7565b6002816004811115611c3957611c396121fa565b1415611c875760405162461bcd60e51b815260206004820152601f60248201527f45434453413a20696e76616c6964207369676e6174757265206c656e6774680060448201526064016105d7565b6003816004811115611c9b57611c9b6121fa565b1415611cf45760405162461bcd60e51b815260206004820152602260248201527f45434453413a20696e76616c6964207369676e6174757265202773272076616c604482015261756560f01b60648201526084016105d7565b6004816004811115611d0857611d086121fa565b14156107015760405162461bcd60e51b815260206004820152602260248201527f45434453413a20696e76616c6964207369676e6174757265202776272076616c604482015261756560f01b60648201526084016105d7565b6001600160a01b038216611dc15760405162461bcd60e51b815260206004820152602160248201527f45524332303a206275726e2066726f6d20746865207a65726f206164647265736044820152607360f81b60648201526084016105d7565b611dcd826000836118f8565b6001600160a01b03821660009081526020819052604090205481811015611e415760405162461bcd60e51b815260206004820152602260248201527f45524332303a206275726e20616d6f756e7420657863656564732062616c616e604482015261636560f01b60648201526084016105d7565b6001600160a01b0383166000908152602081905260408120838303905560028054849290611e709084906121ab565b90915550506040518281526000906001600160a01b038516907fddf252ad1be2c89b69c2b068fc378daa952ba7f163c4a11628f55a4df523b3ef9060200160405180910390a36107f18360008461193e565b600060208083528351808285015260005b81811015611eef57858101830151858201604001528201611ed3565b81811115611f01576000604083870101525b50601f01601f1916929092016040019392505050565b80356001600160a01b0381168114611f2e57600080fd5b919050565b60008060408385031215611f4657600080fd5b611f4f83611f17565b946020939093013593505050565b600080600060608486031215611f7257600080fd5b611f7b84611f17565b9250611f8960208501611f17565b9150604084013590509250925092565b600060208284031215611fab57600080fd5b5035919050565b600060208284031215611fc457600080fd5b6106b682611f17565b803560ff81168114611f2e57600080fd5b60008060008060008060c08789031215611ff757600080fd5b61200087611f17565b9550602087013594506040870135935061201c60608801611fcd565b92506080870135915060a087013590509295509295509295565b600080600080600080600060e0888a03121561205157600080fd5b61205a88611f17565b965061206860208901611f17565b9550604088013594506060880135935061208460808901611fcd565b925060a0880135915060c0880135905092959891949750929550565b600080604083850312156120b357600080fd5b6120bc83611f17565b91506120ca60208401611f17565b90509250929050565b600080604083850312156120e657600080fd5b6120ef83611f17565b9150602083013563ffffffff8116811461210857600080fd5b809150509250929050565b600181811c9082168061212757607f821691505b6020821081141561177957634e487b7160e01b600052602260045260246000fd5b634e487b7160e01b600052601160045260246000fd5b6000821982111561217157612171612148565b500190565b6020808252818101527f4f776e61626c653a2063616c6c6572206973206e6f7420746865206f776e6572604082015260600190565b6000828210156121bd576121bd612148565b500390565b634e487b7160e01b600052603260045260246000fd5b6000826121f557634e487b7160e01b600052601260045260246000fd5b500490565b634e487b7160e01b600052602160045260246000fdfea2646970667358221220ee9d773c2b5f6711639f31fe056914f393a5b1972f24382633fb4a3273677c6264736f6c63430008090033dec2bacdd2f05b59de34da9b523dff8be42e5e38e818c82fdb0bae774387a724",
  "linkReferences": {},
  "deployedLinkReferences": {}
}