{
  "_format": "hh-sol-artifact-1",
  "contractName": "TokenVesting",
  "sourceName": "contracts/TokenVesting.sol",
  "abi": [
    {
      "inputs": [
        {
          "internalType": "address",
          "name": "__beneficiary",
          "type": "address"
        },
        {
          "internalType": "uint256",
          "name": "__start",
          "type": "uint256"
        },
        {
          "internalType": "uint256",
          "name": "__cliffDuration",
          "type": "uint256"
        },
        {
          "internalType": "uint256",
          "name": "__duration",
          "type": "uint256"
        },
        {
          "internalType": "bool",
          "name": "__revocable",
          "type": "bool"
        },
        {
          "internalType": "uint256",
          "name": "__firstReleasePercentage",
          "type": "uint256"
        },
        {
          "internalType": "address",
          "name": "__portfolio",
          "type": "address"
        }
      ],
      "stateMutability": "nonpayable",
      "type": "constructor"
    },
    {
      "anonymous": false,
      "inputs": [
        {
          "indexed": true,
          "internalType": "address",
          "name": "previousOwner",
          "type": "address"
        },
        {
          "indexed": true,
          "internalType": "address",
          "name": "newOwner",
          "type": "address"
        }
      ],
      "name": "OwnershipTransferred",
      "type": "event"
    },
    {
      "anonymous": false,
      "inputs": [
        {
          "indexed": false,
          "internalType": "address",
          "name": "token",
          "type": "address"
        }
      ],
      "name": "TokenVestingRevoked",
      "type": "event"
    },
    {
      "anonymous": false,
      "inputs": [
        {
          "indexed": false,
          "internalType": "address",
          "name": "token",
          "type": "address"
        },
        {
          "indexed": false,
          "internalType": "uint256",
          "name": "amount",
          "type": "uint256"
        }
      ],
      "name": "TokensReleased",
      "type": "event"
    },
    {
      "inputs": [],
      "name": "beneficiary",
      "outputs": [
        {
          "internalType": "address",
          "name": "",
          "type": "address"
        }
      ],
      "stateMutability": "view",
      "type": "function"
    },
    {
      "inputs": [],
      "name": "cliff",
      "outputs": [
        {
          "internalType": "uint256",
          "name": "",
          "type": "uint256"
        }
      ],
      "stateMutability": "view",
      "type": "function"
    },
    {
      "inputs": [
        {
          "internalType": "contract IERC20",
          "name": "token",
          "type": "address"
        },
        {
          "internalType": "uint256",
          "name": "num",
          "type": "uint256"
        }
      ],
      "name": "decrease",
      "outputs": [],
      "stateMutability": "nonpayable",
      "type": "function"
    },
    {
      "inputs": [],
      "name": "duration",
      "outputs": [
        {
          "internalType": "uint256",
          "name": "",
          "type": "uint256"
        }
      ],
      "stateMutability": "view",
      "type": "function"
    },
    {
      "inputs": [],
      "name": "getPortfolio",
      "outputs": [
        {
          "internalType": "address",
          "name": "",
          "type": "address"
        }
      ],
      "stateMutability": "view",
      "type": "function"
    },
    {
      "inputs": [
        {
          "internalType": "contract IERC20",
          "name": "token",
          "type": "address"
        },
        {
          "internalType": "uint256",
          "name": "num",
          "type": "uint256"
        }
      ],
      "name": "increase",
      "outputs": [],
      "stateMutability": "nonpayable",
      "type": "function"
    },
    {
      "inputs": [
        {
          "internalType": "address",
          "name": "token",
          "type": "address"
        }
      ],
      "name": "isFundingPortfolio",
      "outputs": [
        {
          "internalType": "bool",
          "name": "",
          "type": "bool"
        }
      ],
      "stateMutability": "view",
      "type": "function"
    },
    {
      "inputs": [],
      "name": "owner",
      "outputs": [
        {
          "internalType": "address",
          "name": "",
          "type": "address"
        }
      ],
      "stateMutability": "view",
      "type": "function"
    },
    {
      "inputs": [
        {
          "internalType": "contract IERC20",
          "name": "token",
          "type": "address"
        }
      ],
      "name": "release",
      "outputs": [],
      "stateMutability": "nonpayable",
      "type": "function"
    },
    {
      "inputs": [
        {
          "internalType": "address",
          "name": "token",
          "type": "address"
        }
      ],
      "name": "released",
      "outputs": [
        {
          "internalType": "uint256",
          "name": "",
          "type": "uint256"
        }
      ],
      "stateMutability": "view",
      "type": "function"
    },
    {
      "inputs": [],
      "name": "renounceOwnership",
      "outputs": [],
      "stateMutability": "nonpayable",
      "type": "function"
    },
    {
      "inputs": [],
      "name": "revocable",
      "outputs": [
        {
          "internalType": "bool",
          "name": "",
          "type": "bool"
        }
      ],
      "stateMutability": "view",
      "type": "function"
    },
    {
      "inputs": [
        {
          "internalType": "contract IERC20",
          "name": "token",
          "type": "address"
        }
      ],
      "name": "revoke",
      "outputs": [],
      "stateMutability": "nonpayable",
      "type": "function"
    },
    {
      "inputs": [
        {
          "internalType": "address",
          "name": "token",
          "type": "address"
        }
      ],
      "name": "revoked",
      "outputs": [
        {
          "internalType": "bool",
          "name": "",
          "type": "bool"
        }
      ],
      "stateMutability": "view",
      "type": "function"
    },
    {
      "inputs": [
        {
          "internalType": "address",
          "name": "token",
          "type": "address"
        },
        {
          "internalType": "bool",
          "name": "isFunding",
          "type": "bool"
        }
      ],
      "name": "setFundingPortfolio",
      "outputs": [],
      "stateMutability": "nonpayable",
      "type": "function"
    },
    {
      "inputs": [
        {
          "internalType": "address",
          "name": "portfolio",
          "type": "address"
        }
      ],
      "name": "setPortfolio",
      "outputs": [],
      "stateMutability": "nonpayable",
      "type": "function"
    },
    {
      "inputs": [],
      "name": "start",
      "outputs": [
        {
          "internalType": "uint256",
          "name": "",
          "type": "uint256"
        }
      ],
      "stateMutability": "view",
      "type": "function"
    },
    {
      "inputs": [
        {
          "internalType": "address",
          "name": "newOwner",
          "type": "address"
        }
      ],
      "name": "transferOwnership",
      "outputs": [],
      "stateMutability": "nonpayable",
      "type": "function"
    },
    {
      "inputs": [
        {
          "internalType": "contract IERC20",
          "name": "token",
          "type": "address"
        }
      ],
      "name": "vestedAmount",
      "outputs": [
        {
          "internalType": "uint256",
          "name": "",
          "type": "uint256"
        }
      ],
      "stateMutability": "view",
      "type": "function"
    }
  ],
  "bytecode": "0x60806040523480156200001157600080fd5b506040516200153a3803806200153a833981016040819052620000349162000379565b6200003f336200030c565b6001600160a01b038716620000b15760405162461bcd60e51b815260206004820152602d60248201527f546f6b656e56657374696e673a2062656e65666963696172792069732074686560448201526c207a65726f206164647265737360981b60648201526084015b60405180910390fd5b83851115620001175760405162461bcd60e51b815260206004820152602b60248201527f546f6b656e56657374696e673a20636c696666206973206c6f6e67657220746860448201526a30b710323ab930ba34b7b760a91b6064820152608401620000a8565b60008411620001695760405162461bcd60e51b815260206004820152601b60248201527f546f6b656e56657374696e673a206475726174696f6e206973203000000000006044820152606401620000a8565b42620001768588620003f1565b11620001dd5760405162461bcd60e51b815260206004820152602f60248201527f546f6b656e56657374696e673a2066696e616c2074696d65206973206265666f60448201526e72652063757272656e742074696d6560881b6064820152608401620000a8565b600082116200022f5760405162461bcd60e51b815260206004820152601d60248201527f546f6b656e56657374696e673a2070657263656e7461676520697320300000006044820152606401620000a8565b6001600160a01b0381166200029b5760405162461bcd60e51b815260206004820152602b60248201527f546f6b656e56657374696e673a20706f7274666f6c696f20697320746865207a60448201526a65726f206164647265737360a81b6064820152608401620000a8565b600180546001600160a01b0319166001600160a01b0389161790556005805460ff19168415151790556004849055620002d58587620003f1565b6002556003959095556006555050600780546001600160a01b0319166001600160a01b039093169290921790915550620004189050565b600080546001600160a01b038381166001600160a01b0319831681178455604051919092169283917f8be0079c531659141344cd1fd0a4f28419497f9722a3daafe3b4186f6b6457e09190a35050565b80516001600160a01b03811681146200037457600080fd5b919050565b600080600080600080600060e0888a0312156200039557600080fd5b620003a0886200035c565b965060208801519550604088015194506060880151935060808801518015158114620003cb57600080fd5b60a08901519093509150620003e360c089016200035c565b905092959891949750929550565b600082198211156200041357634e487b7160e01b600052601160045260246000fd5b500190565b61111280620004286000396000f3fe608060405234801561001057600080fd5b50600436106101215760003560e01c806374a8f103116100ad578063d3d0345811610071578063d3d034581461023f578063ed3ac08714610250578063f27ac4d91461027c578063f2fde38b1461028f578063fa01dc06146102a257600080fd5b806374a8f103146101d3578063872a7810146101e65780638da5cb5b146101fd5780639852595c1461020e578063be9a65551461023757600080fd5b80631fbed5aa116100f45780631fbed5aa1461016d578063384711cc1461018057806338af3eed14610193578063522afaec146101b8578063715018a6146101cb57600080fd5b8063044337ca146101265780630fb5a6b41461013b57806313d033c014610152578063191655871461015a575b600080fd5b610139610134366004610ee0565b6102ce565b005b6004545b6040519081526020015b60405180910390f35b60025461013f565b610139610168366004610ee0565b610323565b61013961017b366004610f0b565b610467565b61013f61018e366004610ee0565b6104df565b6001546001600160a01b03165b6040516001600160a01b039091168152602001610149565b6101396101c6366004610f44565b6104f0565b610139610508565b6101396101e1366004610ee0565b61053e565b60055460ff165b6040519015158152602001610149565b6000546001600160a01b03166101a0565b61013f61021c366004610ee0565b6001600160a01b03166000908152600a602052604090205490565b60035461013f565b6007546001600160a01b03166101a0565b6101ed61025e366004610ee0565b6001600160a01b031660009081526008602052604090205460ff1690565b61013961028a366004610f44565b610751565b61013961029d366004610ee0565b610765565b6101ed6102b0366004610ee0565b6001600160a01b03166000908152600b602052604090205460ff1690565b6000546001600160a01b031633146103015760405162461bcd60e51b81526004016102f890610f70565b60405180910390fd5b600780546001600160a01b0319166001600160a01b0392909216919091179055565b600061032e826104df565b9050600081116103805760405162461bcd60e51b815260206004820152601f60248201527f546f6b656e56657374696e673a206e6f20746f6b656e7320617265206475650060448201526064016102f8565b6001600160a01b0382166000908152600a60205260409020546103a38282610fbb565b6001600160a01b038085166000818152600a60205260409020929092556001546103cf92911684610800565b801580156103f557506001600160a01b03831660009081526008602052604090205460ff165b15610420576009829055600154600754610420916001600160a01b0386811692918116911685610868565b604080516001600160a01b0385168152602081018490527fc7798891864187665ac6dd119286e44ec13f014527aeeb2b8eb3fd413df93179910160405180910390a1505050565b6001546001600160a01b031633146104b45760405162461bcd60e51b815260206004820152601060248201526f4f6e6c792062656e656669636961727960801b60448201526064016102f8565b6001600160a01b03919091166000908152600860205260409020805460ff1916911515919091179055565b60006104ea826108a6565b92915050565b6105046001600160a01b03831630836109c1565b5050565b6000546001600160a01b031633146105325760405162461bcd60e51b81526004016102f890610f70565b61053c6000610a82565b565b6000546001600160a01b031633146105685760405162461bcd60e51b81526004016102f890610f70565b60055460ff166105ba5760405162461bcd60e51b815260206004820152601b60248201527f546f6b656e56657374696e673a2063616e6e6f74207265766f6b65000000000060448201526064016102f8565b6001600160a01b0381166000908152600b602052604090205460ff161561062f5760405162461bcd60e51b815260206004820152602360248201527f546f6b656e56657374696e673a20746f6b656e20616c7265616479207265766f6044820152621ad95960ea1b60648201526084016102f8565b6040516370a0823160e01b81523060048201526000906001600160a01b038316906370a082319060240160206040518083038186803b15801561067157600080fd5b505afa158015610685573d6000803e3d6000fd5b505050506040513d601f19601f820116820180604052508101906106a99190610fd3565b905060006106b6836104df565b905060006106c48284610fec565b6001600160a01b0385166000908152600b60205260409020805460ff19166001179055905061070f6106fe6000546001600160a01b031690565b6001600160a01b0386169083610800565b6040516001600160a01b03851681527f39983c6d4d174a7aee564f449d4a5c3c7ac9649d72b7793c56901183996f8af69060200160405180910390a150505050565b6105046001600160a01b0383163083610ad2565b6000546001600160a01b0316331461078f5760405162461bcd60e51b81526004016102f890610f70565b6001600160a01b0381166107f45760405162461bcd60e51b815260206004820152602660248201527f4f776e61626c653a206e6577206f776e657220697320746865207a65726f206160448201526564647265737360d01b60648201526084016102f8565b6107fd81610a82565b50565b6040516001600160a01b03831660248201526044810182905261086390849063a9059cbb60e01b906064015b60408051601f198184030181529190526020810180516001600160e01b03166001600160e01b031990931692909217909152610bf4565b505050565b6040516001600160a01b03808516602483015283166044820152606481018290526108a09085906323b872dd60e01b9060840161082c565b50505050565b6040516370a0823160e01b815230600482015260009081906001600160a01b038416906370a082319060240160206040518083038186803b1580156108ea57600080fd5b505afa1580156108fe573d6000803e3d6000fd5b505050506040513d601f19601f820116820180604052508101906109229190610fd3565b6001600160a01b0384166000908152600a6020526040812054600954929350909161094d9084610fbb565b6109579190610fbb565b905060025442101561096d575060009392505050565b60045460035461097d9190610fbb565b421015806109a357506001600160a01b0384166000908152600b602052604090205460ff165b156109af579392505050565b6109b98482610cc6565b949350505050565b604051636eb1769f60e11b81523060048201526001600160a01b038381166024830152600091839186169063dd62ed3e9060440160206040518083038186803b158015610a0d57600080fd5b505afa158015610a21573d6000803e3d6000fd5b505050506040513d601f19601f82011682018060405250810190610a459190610fd3565b610a4f9190610fbb565b6040516001600160a01b0385166024820152604481018290529091506108a090859063095ea7b360e01b9060640161082c565b600080546001600160a01b038381166001600160a01b0319831681178455604051919092169283917f8be0079c531659141344cd1fd0a4f28419497f9722a3daafe3b4186f6b6457e09190a35050565b604051636eb1769f60e11b81523060048201526001600160a01b0383811660248301526000919085169063dd62ed3e9060440160206040518083038186803b158015610b1d57600080fd5b505afa158015610b31573d6000803e3d6000fd5b505050506040513d601f19601f82011682018060405250810190610b559190610fd3565b905081811015610bb95760405162461bcd60e51b815260206004820152602960248201527f5361666545524332303a2064656372656173656420616c6c6f77616e63652062604482015268656c6f77207a65726f60b81b60648201526084016102f8565b6040516001600160a01b03841660248201528282036044820181905290610bed90869063095ea7b360e01b9060640161082c565b5050505050565b6000610c49826040518060400160405280602081526020017f5361666545524332303a206c6f772d6c6576656c2063616c6c206661696c6564815250856001600160a01b0316610d519092919063ffffffff16565b8051909150156108635780806020019051810190610c679190611003565b6108635760405162461bcd60e51b815260206004820152602a60248201527f5361666545524332303a204552433230206f7065726174696f6e20646964206e6044820152691bdd081cdd58d8d9595960b21b60648201526084016102f8565b60008060035442610cd79190610fec565b905060006004548285610cea9190611020565b610cf4919061103f565b6001600160a01b0386166000908152600a602052604090205490915015610d1e5791506104ea9050565b6000606460065486610d309190611020565b610d3a919061103f565b905080821115610d475750805b92506104ea915050565b6060610d608484600085610d6a565b90505b9392505050565b606082471015610dcb5760405162461bcd60e51b815260206004820152602660248201527f416464726573733a20696e73756666696369656e742062616c616e636520666f6044820152651c8818d85b1b60d21b60648201526084016102f8565b843b610e195760405162461bcd60e51b815260206004820152601d60248201527f416464726573733a2063616c6c20746f206e6f6e2d636f6e747261637400000060448201526064016102f8565b600080866001600160a01b03168587604051610e35919061108d565b60006040518083038185875af1925050503d8060008114610e72576040519150601f19603f3d011682016040523d82523d6000602084013e610e77565b606091505b5091509150610e87828286610e92565b979650505050505050565b60608315610ea1575081610d63565b825115610eb15782518084602001fd5b8160405162461bcd60e51b81526004016102f891906110a9565b6001600160a01b03811681146107fd57600080fd5b600060208284031215610ef257600080fd5b8135610d6381610ecb565b80151581146107fd57600080fd5b60008060408385031215610f1e57600080fd5b8235610f2981610ecb565b91506020830135610f3981610efd565b809150509250929050565b60008060408385031215610f5757600080fd5b8235610f6281610ecb565b946020939093013593505050565b6020808252818101527f4f776e61626c653a2063616c6c6572206973206e6f7420746865206f776e6572604082015260600190565b634e487b7160e01b600052601160045260246000fd5b60008219821115610fce57610fce610fa5565b500190565b600060208284031215610fe557600080fd5b5051919050565b600082821015610ffe57610ffe610fa5565b500390565b60006020828403121561101557600080fd5b8151610d6381610efd565b600081600019048311821515161561103a5761103a610fa5565b500290565b60008261105c57634e487b7160e01b600052601260045260246000fd5b500490565b60005b8381101561107c578181015183820152602001611064565b838111156108a05750506000910152565b6000825161109f818460208701611061565b9190910192915050565b60208152600082518060208401526110c8816040850160208701611061565b601f01601f1916919091016040019291505056fea264697066735822122012402d59660e8366b936a4fad7919b918f255eefde0e63df8fce88af5bd2cd8964736f6c63430008090033",
  "linkReferences": {},
  "deployedLinkReferences": {}
}